{
  "contractName": "CadastralContract",
  "abi": [
    {
      "inputs": [],
      "stateMutability": "nonpayable",
      "type": "constructor"
    },
    {
      "anonymous": false,
      "inputs": [
        {
          "indexed": false,
          "internalType": "string",
          "name": "Id",
          "type": "string"
        },
        {
          "indexed": false,
          "internalType": "string",
          "name": "createDate",
          "type": "string"
        }
      ],
      "name": "eventCreate",
      "type": "event"
    },
    {
      "anonymous": false,
      "inputs": [
        {
          "indexed": false,
          "internalType": "string",
          "name": "childId",
          "type": "string"
        },
        {
          "indexed": false,
          "internalType": "string",
          "name": "changeDate",
          "type": "string"
        }
      ],
      "name": "eventMerge",
      "type": "event"
    },
    {
      "anonymous": false,
      "inputs": [
        {
          "indexed": false,
          "internalType": "string",
          "name": "pId",
          "type": "string"
        },
        {
          "indexed": false,
          "internalType": "string",
          "name": "changeDate",
          "type": "string"
        }
      ],
      "name": "eventSplit",
      "type": "event"
    },
    {
      "inputs": [
        {
          "internalType": "string",
          "name": "id",
          "type": "string"
        },
        {
          "components": [
            {
              "internalType": "string",
              "name": "pcno",
              "type": "string"
            },
            {
              "internalType": "string",
              "name": "pmno",
              "type": "string"
            },
            {
              "internalType": "string",
              "name": "scno",
              "type": "string"
            },
            {
              "internalType": "string",
              "name": "county",
              "type": "string"
            },
            {
              "internalType": "uint256",
              "name": "townShip",
              "type": "uint256"
            },
            {
              "internalType": "string",
              "name": "begDate",
              "type": "string"
            },
            {
              "internalType": "string",
              "name": "endDate",
              "type": "string"
            },
            {
              "internalType": "uint256",
              "name": "reason",
              "type": "uint256"
            },
            {
              "internalType": "uint256",
              "name": "changedTag",
              "type": "uint256"
            }
          ],
          "internalType": "struct Data",
          "name": "data",
          "type": "tuple"
        },
        {
          "components": [
            {
              "components": [
                {
                  "internalType": "string",
                  "name": "x",
                  "type": "string"
                },
                {
                  "internalType": "string",
                  "name": "y",
                  "type": "string"
                }
              ],
              "internalType": "struct Point[100]",
              "name": "pList",
              "type": "tuple[100]"
            },
            {
              "internalType": "uint256",
              "name": "numOfPoint",
              "type": "uint256"
            }
          ],
          "internalType": "struct Polygon",
          "name": "poly",
          "type": "tuple"
        },
        {
          "internalType": "string[]",
          "name": "pa",
          "type": "string[]"
        }
      ],
      "name": "create",
      "outputs": [],
      "stateMutability": "payable",
      "type": "function",
      "payable": true
    },
    {
      "inputs": [
        {
          "internalType": "string",
          "name": "sId",
          "type": "string"
        },
        {
          "internalType": "string[]",
          "name": "newIdList",
          "type": "string[]"
        },
        {
          "components": [
            {
              "internalType": "string",
              "name": "pcno",
              "type": "string"
            },
            {
              "internalType": "string",
              "name": "pmno",
              "type": "string"
            },
            {
              "internalType": "string",
              "name": "scno",
              "type": "string"
            },
            {
              "internalType": "string",
              "name": "county",
              "type": "string"
            },
            {
              "internalType": "uint256",
              "name": "townShip",
              "type": "uint256"
            },
            {
              "internalType": "string",
              "name": "begDate",
              "type": "string"
            },
            {
              "internalType": "string",
              "name": "endDate",
              "type": "string"
            },
            {
              "internalType": "uint256",
              "name": "reason",
              "type": "uint256"
            },
            {
              "internalType": "uint256",
              "name": "changedTag",
              "type": "uint256"
            }
          ],
          "internalType": "struct Data[]",
          "name": "newDataList",
          "type": "tuple[]"
        },
        {
          "components": [
            {
              "components": [
                {
                  "internalType": "string",
                  "name": "x",
                  "type": "string"
                },
                {
                  "internalType": "string",
                  "name": "y",
                  "type": "string"
                }
              ],
              "internalType": "struct Point[100]",
              "name": "pList",
              "type": "tuple[100]"
            },
            {
              "internalType": "uint256",
              "name": "numOfPoint",
              "type": "uint256"
            }
          ],
          "internalType": "struct Polygon[]",
          "name": "polygonList",
          "type": "tuple[]"
        },
        {
          "internalType": "uint256",
          "name": "numOfnewEstate",
          "type": "uint256"
        }
      ],
      "name": "split",
      "outputs": [],
      "stateMutability": "payable",
      "type": "function",
      "payable": true
    },
    {
      "inputs": [
        {
          "internalType": "string[]",
          "name": "mIdList",
          "type": "string[]"
        },
        {
          "internalType": "string",
          "name": "newId",
          "type": "string"
        },
        {
          "components": [
            {
              "internalType": "string",
              "name": "pcno",
              "type": "string"
            },
            {
              "internalType": "string",
              "name": "pmno",
              "type": "string"
            },
            {
              "internalType": "string",
              "name": "scno",
              "type": "string"
            },
            {
              "internalType": "string",
              "name": "county",
              "type": "string"
            },
            {
              "internalType": "uint256",
              "name": "townShip",
              "type": "uint256"
            },
            {
              "internalType": "string",
              "name": "begDate",
              "type": "string"
            },
            {
              "internalType": "string",
              "name": "endDate",
              "type": "string"
            },
            {
              "internalType": "uint256",
              "name": "reason",
              "type": "uint256"
            },
            {
              "internalType": "uint256",
              "name": "changedTag",
              "type": "uint256"
            }
          ],
          "internalType": "struct Data",
          "name": "data",
          "type": "tuple"
        },
        {
          "components": [
            {
              "components": [
                {
                  "internalType": "string",
                  "name": "x",
                  "type": "string"
                },
                {
                  "internalType": "string",
                  "name": "y",
                  "type": "string"
                }
              ],
              "internalType": "struct Point[100]",
              "name": "pList",
              "type": "tuple[100]"
            },
            {
              "internalType": "uint256",
              "name": "numOfPoint",
              "type": "uint256"
            }
          ],
          "internalType": "struct Polygon",
          "name": "polygon",
          "type": "tuple"
        },
        {
          "internalType": "uint256",
          "name": "numOfMergeEstate",
          "type": "uint256"
        }
      ],
      "name": "merge",
      "outputs": [],
      "stateMutability": "payable",
      "type": "function",
      "payable": true
    },
    {
      "inputs": [
        {
          "internalType": "string",
          "name": "Id",
          "type": "string"
        }
      ],
      "name": "getEstateData",
      "outputs": [
        {
          "components": [
            {
              "internalType": "string",
              "name": "pcno",
              "type": "string"
            },
            {
              "internalType": "string",
              "name": "pmno",
              "type": "string"
            },
            {
              "internalType": "string",
              "name": "scno",
              "type": "string"
            },
            {
              "internalType": "string",
              "name": "county",
              "type": "string"
            },
            {
              "internalType": "uint256",
              "name": "townShip",
              "type": "uint256"
            },
            {
              "internalType": "string",
              "name": "begDate",
              "type": "string"
            },
            {
              "internalType": "string",
              "name": "endDate",
              "type": "string"
            },
            {
              "internalType": "uint256",
              "name": "reason",
              "type": "uint256"
            },
            {
              "internalType": "uint256",
              "name": "changedTag",
              "type": "uint256"
            }
          ],
          "internalType": "struct Data",
          "name": "",
          "type": "tuple"
        },
        {
          "components": [
            {
              "components": [
                {
                  "internalType": "string",
                  "name": "x",
                  "type": "string"
                },
                {
                  "internalType": "string",
                  "name": "y",
                  "type": "string"
                }
              ],
              "internalType": "struct Point[100]",
              "name": "pList",
              "type": "tuple[100]"
            },
            {
              "internalType": "uint256",
              "name": "numOfPoint",
              "type": "uint256"
            }
          ],
          "internalType": "struct Polygon",
          "name": "",
          "type": "tuple"
        },
        {
          "internalType": "string[]",
          "name": "",
          "type": "string[]"
        },
        {
          "internalType": "string[]",
          "name": "",
          "type": "string[]"
        }
      ],
      "stateMutability": "view",
      "type": "function",
      "constant": true
    }
  ],
  "bytecode": "0x608060405234801561001057600080fd5b50600060018190555060006002819055506000600381905550614123806100386000396000f3fe608060405260043610620000445760003560e01c80635f3306eb14620000495780637093ff5b1462000069578063b8818f2e14620000b0578063c81663de14620000d0575b600080fd5b620000676004803603620000619190810190620018cd565b620000f0565b005b3480156200007657600080fd5b506200009560048036036200008f919081019062001888565b6200042c565b604051620000a7949392919062002173565b60405180910390f35b620000ce6004803603620000c89190810190620017a2565b620006db565b005b620000ee6004803603620000e89190810190620019b3565b620008d0565b005b6001600381905550600080866040516200010b91906200204a565b908152602001604051809103902060009054906101000a900473ffffffffffffffffffffffffffffffffffffffff1690508073ffffffffffffffffffffffffffffffffffffffff166394094420856000815181106200016657fe5b602002602001015160a001516040518263ffffffff1660e01b8152600401620001909190620020ab565b600060405180830381600087803b158015620001ab57600080fd5b505af1158015620001c0573d6000803e3d6000fd5b505050508073ffffffffffffffffffffffffffffffffffffffff16636d8012b7866040518263ffffffff1660e01b8152600401620001ff919062002063565b600060405180830381600087803b1580156200021a57600080fd5b505af11580156200022f573d6000803e3d6000fd5b505050506200023d620009e6565b86816000600181106200024c57fe5b60200201819052508060049060016200026792919062000a0e565b5060008090505b83811015620003b657620003a88782815181106200028857fe5b60200260200101518783815181106200029d57fe5b6020026020010151878481518110620002b257fe5b60200260200101516004805480602002602001604051908101604052809291908181526020016000905b828210156200039e578382906000526020600020018054600181600116156101000203166002900480601f016020809104026020016040519081016040528092919081815260200182805460018160011615610100020316600290048015620003895780601f106200035d5761010080835404028352916020019162000389565b820191906000526020600020905b8154815290600101906020018083116200036b57829003601f168201915b505050505081526020019060010190620002dc565b50505050620008d0565b80806001019150506200026e565b50600180600082825403925050819055507f7e15e6dc020baf5b22d6769b87f32d5ef5caf7145543897889932106965d23d58786600081518110620003f757fe5b602002602001015160a0015160405162000413929190620020cf565b60405180910390a1600060038190555050505050505050565b6200043662000a75565b6200044062000ac1565b606080600080866040516200045691906200204a565b908152602001604051809103902060009054906101000a900473ffffffffffffffffffffffffffffffffffffffff1690506200049162000a75565b8173ffffffffffffffffffffffffffffffffffffffff16633bc5de306040518163ffffffff1660e01b815260040160006040518083038186803b158015620004d857600080fd5b505afa158015620004ed573d6000803e3d6000fd5b505050506040513d6000823e3d601f19601f8201168201806040525062000518919081019062001a83565b90506200052462000ac1565b8273ffffffffffffffffffffffffffffffffffffffff166313d743bc6040518163ffffffff1660e01b815260040160006040518083038186803b1580156200056b57600080fd5b505afa15801562000580573d6000803e3d6000fd5b505050506040513d6000823e3d601f19601f82011682018060405250620005ab919081019062001ac8565b905060608373ffffffffffffffffffffffffffffffffffffffff1663dd6133b56040518163ffffffff1660e01b815260040160006040518083038186803b158015620005f657600080fd5b505afa1580156200060b573d6000803e3d6000fd5b505050506040513d6000823e3d601f19601f820116820180604052506200063691908101906200175d565b905060608473ffffffffffffffffffffffffffffffffffffffff16634892e8e86040518163ffffffff1660e01b815260040160006040518083038186803b1580156200068157600080fd5b505afa15801562000696573d6000803e3d6000fd5b505050506040513d6000823e3d601f19601f82011682018060405250620006c191908101906200175d565b905083838383985098509850985050505050509193509193565b60016003819055506000620006ef620009e6565b8581600060018110620006fe57fe5b60200201819052508060049060016200071992919062000a0e565b5060008090505b83811015620008715760008882815181106200073857fe5b60200260200101516040516200074f919062002031565b908152602001604051809103902060009054906101000a900473ffffffffffffffffffffffffffffffffffffffff1692508273ffffffffffffffffffffffffffffffffffffffff1663940944208760a001516040518263ffffffff1660e01b8152600401620007bf9190620020ab565b600060405180830381600087803b158015620007da57600080fd5b505af1158015620007ef573d6000803e3d6000fd5b505050508273ffffffffffffffffffffffffffffffffffffffff16636d8012b760046040518263ffffffff1660e01b81526004016200082f919062002087565b600060405180830381600087803b1580156200084a57600080fd5b505af11580156200085f573d6000803e3d6000fd5b50505050808060010191505062000720565b50620008808686868a620008d0565b7f922ddb6030cdf9b76cc77e5b375bdb38683c6f4884cd6bb7beb935b3d063f288868660a00151604051620008b7929190620020cf565b60405180910390a1600060038190555050505050505050565b600084848484604051620008e49062000ae3565b620008f394939291906200210a565b604051809103906000f08015801562000910573d6000803e3d6000fd5b509050806000866040516200092691906200204a565b908152602001604051809103902060006101000a81548173ffffffffffffffffffffffffffffffffffffffff021916908373ffffffffffffffffffffffffffffffffffffffff16021790555060018060008282540192505081905550600160026000828254019250508190555060006003541415620009df577fa3c6a33084e74966f417ccba1a5a0776c266af418413a6b3405400a3558549d4858560a00151604051620009d6929190620020cf565b60405180910390a15b5050505050565b60405180602001604052806001905b6060815260200190600190039081620009f55790505090565b82805482825590600052602060002090810192821562000a62579160200282015b8281111562000a6157825182908051906020019062000a5092919062000af1565b509160200191906001019062000a2f565b5b50905062000a71919062000b78565b5090565b6040518061012001604052806060815260200160608152602001606081526020016060815260200160008152602001606081526020016060815260200160008152602001600081525090565b604051806040016040528062000ad662000ba9565b8152602001600081525090565b611c86806200246883390190565b828054600181600116156101000203166002900490600052602060002090601f016020900481019282601f1062000b3457805160ff191683800117855562000b65565b8280016001018555821562000b65579182015b8281111562000b6457825182559160200191906001019062000b47565b5b50905062000b74919062000bda565b5090565b62000ba691905b8082111562000ba2576000818162000b98919062000c02565b5060010162000b7f565b5090565b90565b60405180610c8001604052806064905b62000bc362000c4e565b81526020019060019003908162000bb95790505090565b62000bff91905b8082111562000bfb57600081600090555060010162000be1565b5090565b90565b50805460018160011615610100020316600290046000825580601f1062000c2a575062000c4b565b601f01602090049060005260206000209081019062000c4a919062000bda565b5b50565b604051806040016040528060608152602001606081525090565b600082601f83011262000c7a57600080fd5b813562000c9162000c8b826200220a565b620021dc565b9150818183526020840193506020810190508360005b8381101562000cdb578135860162000cc0888262000f38565b84526020840193506020830192505060018101905062000ca7565b5050505092915050565b600082601f83011262000cf757600080fd5b815162000d0e62000d08826200220a565b620021dc565b9150818183526020840193506020810190508360005b8381101562000d58578151860162000d3d888262000f94565b84526020840193506020830192505060018101905062000d24565b5050505092915050565b600082601f83011262000d7457600080fd5b813562000d8b62000d858262002233565b620021dc565b9150818183526020840193506020810190508360005b8381101562000dd5578135860162000dba88826200104c565b84526020840193506020830192505060018101905062000da1565b5050505092915050565b600082601f83011262000df157600080fd5b606462000e0862000e02826200225c565b620021dc565b9150818360005b8381101562000e43578135860162000e288882620014e1565b84526020840193506020830192505060018101905062000e0f565b5050505092915050565b600082601f83011262000e5f57600080fd5b606462000e7662000e70826200225c565b620021dc565b9150818360005b8381101562000eb1578151860162000e96888262001566565b84526020840193506020830192505060018101905062000e7d565b5050505092915050565b600082601f83011262000ecd57600080fd5b813562000ee462000ede826200227f565b620021dc565b9150818183526020840193506020810190508360005b8381101562000f2e578135860162000f138882620015eb565b84526020840193506020830192505060018101905062000efa565b5050505092915050565b600082601f83011262000f4a57600080fd5b813562000f6162000f5b82620022a8565b620021dc565b9150808252602083016020830185838301111562000f7e57600080fd5b62000f8b838284620023f7565b50505092915050565b600082601f83011262000fa657600080fd5b815162000fbd62000fb782620022a8565b620021dc565b9150808252602083016020830185838301111562000fda57600080fd5b62000fe783828462002406565b50505092915050565b600082601f8301126200100257600080fd5b8135620010196200101382620022d5565b620021dc565b915080825260208301602083018583830111156200103657600080fd5b62001043838284620023f7565b50505092915050565b600061012082840312156200106057600080fd5b6200106d610120620021dc565b9050600082013567ffffffffffffffff8111156200108a57600080fd5b620010988482850162000f38565b600083015250602082013567ffffffffffffffff811115620010b957600080fd5b620010c78482850162000f38565b602083015250604082013567ffffffffffffffff811115620010e857600080fd5b620010f68482850162000f38565b604083015250606082013567ffffffffffffffff8111156200111757600080fd5b620011258482850162000f38565b60608301525060806200113b848285016200172f565b60808301525060a082013567ffffffffffffffff8111156200115c57600080fd5b6200116a8482850162000f38565b60a08301525060c082013567ffffffffffffffff8111156200118b57600080fd5b620011998482850162000f38565b60c08301525060e0620011af848285016200172f565b60e083015250610100620011c6848285016200172f565b6101008301525092915050565b60006101208284031215620011e757600080fd5b620011f4610120620021dc565b9050600082013567ffffffffffffffff8111156200121157600080fd5b6200121f8482850162000f38565b600083015250602082013567ffffffffffffffff8111156200124057600080fd5b6200124e8482850162000f38565b602083015250604082013567ffffffffffffffff8111156200126f57600080fd5b6200127d8482850162000f38565b604083015250606082013567ffffffffffffffff8111156200129e57600080fd5b620012ac8482850162000f38565b6060830152506080620012c2848285016200172f565b60808301525060a082013567ffffffffffffffff811115620012e357600080fd5b620012f18482850162000f38565b60a08301525060c082013567ffffffffffffffff8111156200131257600080fd5b620013208482850162000f38565b60c08301525060e062001336848285016200172f565b60e0830152506101006200134d848285016200172f565b6101008301525092915050565b600061012082840312156200136e57600080fd5b6200137b610120620021dc565b9050600082015167ffffffffffffffff8111156200139857600080fd5b620013a68482850162000f94565b600083015250602082015167ffffffffffffffff811115620013c757600080fd5b620013d58482850162000f94565b602083015250604082015167ffffffffffffffff811115620013f657600080fd5b620014048482850162000f94565b604083015250606082015167ffffffffffffffff8111156200142557600080fd5b620014338482850162000f94565b6060830152506080620014498482850162001746565b60808301525060a082015167ffffffffffffffff8111156200146a57600080fd5b620014788482850162000f94565b60a08301525060c082015167ffffffffffffffff8111156200149957600080fd5b620014a78482850162000f94565b60c08301525060e0620014bd8482850162001746565b60e083015250610100620014d48482850162001746565b6101008301525092915050565b600060408284031215620014f457600080fd5b620015006040620021dc565b9050600082013567ffffffffffffffff8111156200151d57600080fd5b6200152b8482850162000f38565b600083015250602082013567ffffffffffffffff8111156200154c57600080fd5b6200155a8482850162000f38565b60208301525092915050565b6000604082840312156200157957600080fd5b620015856040620021dc565b9050600082015167ffffffffffffffff811115620015a257600080fd5b620015b08482850162000f94565b600083015250602082015167ffffffffffffffff811115620015d157600080fd5b620015df8482850162000f94565b60208301525092915050565b600060408284031215620015fe57600080fd5b6200160a6040620021dc565b9050600082013567ffffffffffffffff8111156200162757600080fd5b620016358482850162000ddf565b60008301525060206200164b848285016200172f565b60208301525092915050565b6000604082840312156200166a57600080fd5b620016766040620021dc565b9050600082013567ffffffffffffffff8111156200169357600080fd5b620016a18482850162000ddf565b6000830152506020620016b7848285016200172f565b60208301525092915050565b600060408284031215620016d657600080fd5b620016e26040620021dc565b9050600082015167ffffffffffffffff811115620016ff57600080fd5b6200170d8482850162000e4d565b6000830152506020620017238482850162001746565b60208301525092915050565b60008135905062001740816200244d565b92915050565b60008151905062001757816200244d565b92915050565b6000602082840312156200177057600080fd5b600082015167ffffffffffffffff8111156200178b57600080fd5b620017998482850162000ce5565b91505092915050565b600080600080600060a08688031215620017bb57600080fd5b600086013567ffffffffffffffff811115620017d657600080fd5b620017e48882890162000c68565b955050602086013567ffffffffffffffff8111156200180257600080fd5b620018108882890162000ff0565b945050604086013567ffffffffffffffff8111156200182e57600080fd5b6200183c88828901620011d3565b935050606086013567ffffffffffffffff8111156200185a57600080fd5b620018688882890162001657565b92505060806200187b888289016200172f565b9150509295509295909350565b6000602082840312156200189b57600080fd5b600082013567ffffffffffffffff811115620018b657600080fd5b620018c48482850162000ff0565b91505092915050565b600080600080600060a08688031215620018e657600080fd5b600086013567ffffffffffffffff8111156200190157600080fd5b6200190f8882890162000ff0565b955050602086013567ffffffffffffffff8111156200192d57600080fd5b6200193b8882890162000c68565b945050604086013567ffffffffffffffff8111156200195957600080fd5b620019678882890162000d62565b935050606086013567ffffffffffffffff8111156200198557600080fd5b620019938882890162000ebb565b9250506080620019a6888289016200172f565b9150509295509295909350565b60008060008060808587031215620019ca57600080fd5b600085013567ffffffffffffffff811115620019e557600080fd5b620019f38782880162000ff0565b945050602085013567ffffffffffffffff81111562001a1157600080fd5b62001a1f87828801620011d3565b935050604085013567ffffffffffffffff81111562001a3d57600080fd5b62001a4b8782880162001657565b925050606085013567ffffffffffffffff81111562001a6957600080fd5b62001a778782880162000c68565b91505092959194509250565b60006020828403121562001a9657600080fd5b600082015167ffffffffffffffff81111562001ab157600080fd5b62001abf848285016200135a565b91505092915050565b60006020828403121562001adb57600080fd5b600082015167ffffffffffffffff81111562001af657600080fd5b62001b0484828501620016c3565b91505092915050565b600062001b1b838362001d49565b905092915050565b600062001b31838362001e02565b905092915050565b600062001b47838362001f97565b905092915050565b600062001b5c8262002346565b62001b688185620023a4565b93508360208202850162001b7c8562002302565b8060005b8581101562001bbe578484038952815162001b9c858262001b0d565b945062001ba9836200237d565b925060208a0199505060018101905062001b80565b50829750879550505050505092915050565b600062001bdd8262002351565b62001be98185620023a4565b93508360208202850162001bfd8562002312565b8060005b8581101562001c3e5784840389528162001c1c858262001b23565b945062001c29836200238a565b925060208a0199505060018101905062001c01565b50829750879550505050505092915050565b600062001c5d826200235c565b62001c698185620023b5565b93508360208202850162001c7d8562002327565b8060005b8581101562001cbf578484038952815162001c9d858262001b39565b945062001caa8362002397565b925060208a0199505060018101905062001c81565b50829750879550505050505092915050565b600062001cde8262002372565b62001cea8185620023d1565b935062001cfc81856020860162002406565b62001d07816200243c565b840191505092915050565b600062001d1f8262002372565b62001d2b8185620023e2565b935062001d3d81856020860162002406565b80840191505092915050565b600062001d568262002367565b62001d628185620023c0565b935062001d7481856020860162002406565b62001d7f816200243c565b840191505092915050565b600062001d978262002367565b62001da38185620023d1565b935062001db581856020860162002406565b62001dc0816200243c565b840191505092915050565b600062001dd88262002367565b62001de48185620023e2565b935062001df681856020860162002406565b80840191505092915050565b60008154600181166000811462001e22576001811462001e4b5762001e95565b607f600283041662001e358187620023c0565b955060ff19831686526020860193505062001e95565b6002820462001e5b8187620023c0565b955062001e688562002331565b60005b8281101562001e8c5781548189015260018201915060208101905062001e6b565b80880195505050505b505092915050565b600061012083016000830151848203600086015262001ebd828262001d49565b9150506020830151848203602086015262001ed9828262001d49565b9150506040830151848203604086015262001ef5828262001d49565b9150506060830151848203606086015262001f11828262001d49565b915050608083015162001f28608086018262002020565b5060a083015184820360a086015262001f42828262001d49565b91505060c083015184820360c086015262001f5e828262001d49565b91505060e083015162001f7560e086018262002020565b5061010083015162001f8c61010086018262002020565b508091505092915050565b6000604083016000830151848203600086015262001fb6828262001d49565b9150506020830151848203602086015262001fd2828262001d49565b9150508091505092915050565b6000604083016000830151848203600086015262001ffe828262001c50565b915050602083015162002015602086018262002020565b508091505092915050565b6200202b81620023ed565b82525050565b60006200203f828462001dcb565b915081905092915050565b600062002058828462001d12565b915081905092915050565b600060208201905081810360008301526200207f818462001b4f565b905092915050565b60006020820190508181036000830152620020a3818462001bd0565b905092915050565b60006020820190508181036000830152620020c7818462001d8a565b905092915050565b60006040820190508181036000830152620020eb818562001cd1565b9050818103602083015262002101818462001d8a565b90509392505050565b6000608082019050818103600083015262002126818762001cd1565b905081810360208301526200213c818662001e9d565b9050818103604083015262002152818562001fdf565b9050818103606083015262002168818462001b4f565b905095945050505050565b600060808201905081810360008301526200218f818762001e9d565b90508181036020830152620021a5818662001fdf565b90508181036040830152620021bb818562001b4f565b90508181036060830152620021d1818462001b4f565b905095945050505050565b6000604051905081810181811067ffffffffffffffff821117156200220057600080fd5b8060405250919050565b600067ffffffffffffffff8211156200222257600080fd5b602082029050602081019050919050565b600067ffffffffffffffff8211156200224b57600080fd5b602082029050602081019050919050565b600067ffffffffffffffff8211156200227457600080fd5b602082029050919050565b600067ffffffffffffffff8211156200229757600080fd5b602082029050602081019050919050565b600067ffffffffffffffff821115620022c057600080fd5b601f19601f8301169050602081019050919050565b600067ffffffffffffffff821115620022ed57600080fd5b601f19601f8301169050602081019050919050565b6000819050602082019050919050565b60008190508160005260206000209050919050565b6000819050919050565b60008190508160005260206000209050919050565b600081519050919050565b600081549050919050565b600060649050919050565b600081519050919050565b600081519050919050565b6000602082019050919050565b6000600182019050919050565b6000602082019050919050565b600082825260208201905092915050565b600081905092915050565b600082825260208201905092915050565b600082825260208201905092915050565b600081905092915050565b6000819050919050565b82818337600083830152505050565b60005b838110156200242657808201518184015260208101905062002409565b8381111562002436576000848401525b50505050565b6000601f19601f8301169050919050565b6200245881620023ed565b81146200246457600080fd5b5056fe60806040523480156200001157600080fd5b5060405162001c8638038062001c86833981810160405262000037919081019062000869565b826000015160016000019080519060200190620000569291906200021d565b50826040015160016002019080519060200190620000769291906200021d565b508260200151600180019080519060200190620000959291906200021d565b50826060015160016003019080519060200190620000b59291906200021d565b5082608001516001600401819055508260a0015160016005019080519060200190620000e39291906200021d565b508260c0015160016006019080519060200190620001039291906200021d565b508260e0015160016007018190555082610100015160016008018190555060008090505b8260200151811015620001d257826000015181606481106200014557fe5b602002015160000151600a60000182606481106200015f57fe5b6002020160000190805190602001906200017b9291906200021d565b50826000015181606481106200018d57fe5b602002015160200151600a6000018260648110620001a757fe5b600202016001019080519060200190620001c39291906200021d565b50808060010191505062000127565b508160200151600a60c801819055508060d39080519060200190620001f9929190620002a4565b508360009080519060200190620002129291906200021d565b505050505062000a67565b828054600181600116156101000203166002900490600052602060002090601f016020900481019282601f106200026057805160ff191683800117855562000291565b8280016001018555821562000291579182015b828111156200029057825182559160200191906001019062000273565b5b509050620002a091906200030b565b5090565b828054828255906000526020600020908101928215620002f8579160200282015b82811115620002f7578251829080519060200190620002e692919062000333565b5091602001919060010190620002c5565b5b509050620003079190620003ba565b5090565b6200033091905b808211156200032c57600081600090555060010162000312565b5090565b90565b828054600181600116156101000203166002900490600052602060002090601f016020900481019282601f106200037657805160ff1916838001178555620003a7565b82800160010185558215620003a7579182015b82811115620003a657825182559160200191906001019062000389565b5b509050620003b691906200030b565b5090565b620003e891905b80821115620003e45760008181620003da9190620003eb565b50600101620003c1565b5090565b90565b50805460018160011615610100020316600290046000825580601f1062000413575062000434565b601f0160209004906000526020600020908101906200043391906200030b565b5b50565b600082601f8301126200044957600080fd5b8151620004606200045a8262000967565b62000939565b9150818183526020840193506020810190508360005b83811015620004aa57815186016200048f888262000522565b84526020840193506020830192505060018101905062000476565b5050505092915050565b600082601f830112620004c657600080fd5b6064620004dd620004d78262000990565b62000939565b9150818360005b83811015620005185781518601620004fd888262000761565b845260208401935060208301925050600181019050620004e4565b5050505092915050565b600082601f8301126200053457600080fd5b81516200054b6200054582620009b3565b62000939565b915080825260208301602083018583830111156200056857600080fd5b6200057583828462000a17565b50505092915050565b600082601f8301126200059057600080fd5b8151620005a7620005a182620009e0565b62000939565b91508082526020830160208301858383011115620005c457600080fd5b620005d183828462000a17565b50505092915050565b60006101208284031215620005ee57600080fd5b620005fb61012062000939565b9050600082015167ffffffffffffffff8111156200061857600080fd5b620006268482850162000522565b600083015250602082015167ffffffffffffffff8111156200064757600080fd5b620006558482850162000522565b602083015250604082015167ffffffffffffffff8111156200067657600080fd5b620006848482850162000522565b604083015250606082015167ffffffffffffffff811115620006a557600080fd5b620006b38482850162000522565b6060830152506080620006c98482850162000852565b60808301525060a082015167ffffffffffffffff811115620006ea57600080fd5b620006f88482850162000522565b60a08301525060c082015167ffffffffffffffff8111156200071957600080fd5b620007278482850162000522565b60c08301525060e06200073d8482850162000852565b60e083015250610100620007548482850162000852565b6101008301525092915050565b6000604082840312156200077457600080fd5b62000780604062000939565b9050600082015167ffffffffffffffff8111156200079d57600080fd5b620007ab8482850162000522565b600083015250602082015167ffffffffffffffff811115620007cc57600080fd5b620007da8482850162000522565b60208301525092915050565b600060408284031215620007f957600080fd5b62000805604062000939565b9050600082015167ffffffffffffffff8111156200082257600080fd5b6200083084828501620004b4565b6000830152506020620008468482850162000852565b60208301525092915050565b600081519050620008638162000a4d565b92915050565b600080600080608085870312156200088057600080fd5b600085015167ffffffffffffffff8111156200089b57600080fd5b620008a9878288016200057e565b945050602085015167ffffffffffffffff811115620008c757600080fd5b620008d587828801620005da565b935050604085015167ffffffffffffffff811115620008f357600080fd5b6200090187828801620007e6565b925050606085015167ffffffffffffffff8111156200091f57600080fd5b6200092d8782880162000437565b91505092959194509250565b6000604051905081810181811067ffffffffffffffff821117156200095d57600080fd5b8060405250919050565b600067ffffffffffffffff8211156200097f57600080fd5b602082029050602081019050919050565b600067ffffffffffffffff821115620009a857600080fd5b602082029050919050565b600067ffffffffffffffff821115620009cb57600080fd5b601f19601f8301169050602081019050919050565b600067ffffffffffffffff821115620009f857600080fd5b601f19601f8301169050602081019050919050565b6000819050919050565b60005b8381101562000a3757808201518184015260208101905062000a1a565b8381111562000a47576000848401525b50505050565b62000a588162000a0d565b811462000a6457600080fd5b50565b61120f8062000a776000396000f3fe608060405234801561001057600080fd5b50600436106100625760003560e01c806313d743bc146100675780633bc5de30146100855780634892e8e8146100a35780636d8012b7146100c157806394094420146100dd578063dd6133b5146100f9575b600080fd5b61006f610117565b60405161007c919061102b565b60405180910390f35b61008d6102cb565b60405161009a9190611009565b60405180910390f35b6100ab6106d0565b6040516100b89190610fe7565b60405180910390f35b6100db60048036036100d69190810190610ca2565b6107b9565b005b6100f760048036036100f29190810190610ce3565b6107d3565b005b6101016107f0565b60405161010e9190610fe7565b60405180910390f35b61011f6108d9565b600a60405180604001604052908160008201606480602002604051908101604052809291906000905b828210156102b457838260020201604051806040016040529081600082018054600181600116156101000203166002900480601f0160208091040260200160405190810160405280929190818152602001828054600181600116156101000203166002900480156101fa5780601f106101cf576101008083540402835291602001916101fa565b820191906000526020600020905b8154815290600101906020018083116101dd57829003601f168201915b50505050508152602001600182018054600181600116156101000203166002900480601f01602080910402602001604051908101604052809291908181526020018280546001816001161561010002031660029004801561029c5780601f106102715761010080835404028352916020019161029c565b820191906000526020600020905b81548152906001019060200180831161027f57829003601f168201915b50505050508152505081526020019060010190610148565b50505050815260200160c882015481525050905090565b6102d36108f9565b600160405180610120016040529081600082018054600181600116156101000203166002900480601f01602080910402602001604051908101604052809291908181526020018280546001816001161561010002031660029004801561037a5780601f1061034f5761010080835404028352916020019161037a565b820191906000526020600020905b81548152906001019060200180831161035d57829003601f168201915b50505050508152602001600182018054600181600116156101000203166002900480601f01602080910402602001604051908101604052809291908181526020018280546001816001161561010002031660029004801561041c5780601f106103f15761010080835404028352916020019161041c565b820191906000526020600020905b8154815290600101906020018083116103ff57829003601f168201915b50505050508152602001600282018054600181600116156101000203166002900480601f0160208091040260200160405190810160405280929190818152602001828054600181600116156101000203166002900480156104be5780601f10610493576101008083540402835291602001916104be565b820191906000526020600020905b8154815290600101906020018083116104a157829003601f168201915b50505050508152602001600382018054600181600116156101000203166002900480601f0160208091040260200160405190810160405280929190818152602001828054600181600116156101000203166002900480156105605780601f1061053557610100808354040283529160200191610560565b820191906000526020600020905b81548152906001019060200180831161054357829003601f168201915b5050505050815260200160048201548152602001600582018054600181600116156101000203166002900480601f01602080910402602001604051908101604052809291908181526020018280546001816001161561010002031660029004801561060c5780601f106105e15761010080835404028352916020019161060c565b820191906000526020600020905b8154815290600101906020018083116105ef57829003601f168201915b50505050508152602001600682018054600181600116156101000203166002900480601f0160208091040260200160405190810160405280929190818152602001828054600181600116156101000203166002900480156106ae5780601f10610683576101008083540402835291602001916106ae565b820191906000526020600020905b81548152906001019060200180831161069157829003601f168201915b5050505050815260200160078201548152602001600882015481525050905090565b606060d4805480602002602001604051908101604052809291908181526020016000905b828210156107b0578382906000526020600020018054600181600116156101000203166002900480601f01602080910402602001604051908101604052809291908181526020018280546001816001161561010002031660029004801561079c5780601f106107715761010080835404028352916020019161079c565b820191906000526020600020905b81548152906001019060200180831161077f57829003601f168201915b5050505050815260200190600101906106f4565b50505050905090565b8060d490805190602001906107cf929190610945565b5050565b80600160060190805190602001906107ec9291906109a5565b5050565b606060d3805480602002602001604051908101604052809291908181526020016000905b828210156108d0578382906000526020600020018054600181600116156101000203166002900480601f0160208091040260200160405190810160405280929190818152602001828054600181600116156101000203166002900480156108bc5780601f10610891576101008083540402835291602001916108bc565b820191906000526020600020905b81548152906001019060200180831161089f57829003601f168201915b505050505081526020019060010190610814565b50505050905090565b60405180604001604052806108ec610a25565b8152602001600081525090565b6040518061012001604052806060815260200160608152602001606081526020016060815260200160008152602001606081526020016060815260200160008152602001600081525090565b828054828255906000526020600020908101928215610994579160200282015b82811115610993578251829080519060200190610983929190610a53565b5091602001919060010190610965565b5b5090506109a19190610ad3565b5090565b828054600181600116156101000203166002900490600052602060002090601f016020900481019282601f106109e657805160ff1916838001178555610a14565b82800160010185558215610a14579182015b82811115610a135782518255916020019190600101906109f8565b5b509050610a219190610aff565b5090565b60405180610c8001604052806064905b610a3d610b24565b815260200190600190039081610a355790505090565b828054600181600116156101000203166002900490600052602060002090601f016020900481019282601f10610a9457805160ff1916838001178555610ac2565b82800160010185558215610ac2579182015b82811115610ac1578251825591602001919060010190610aa6565b5b509050610acf9190610aff565b5090565b610afc91905b80821115610af85760008181610aef9190610b3e565b50600101610ad9565b5090565b90565b610b2191905b80821115610b1d576000816000905550600101610b05565b5090565b90565b604051806040016040528060608152602001606081525090565b50805460018160011615610100020316600290046000825580601f10610b645750610b83565b601f016020900490600052602060002090810190610b829190610aff565b5b50565b600082601f830112610b9757600080fd5b8135610baa610ba58261107a565b61104d565b9150818183526020840193506020810190508360005b83811015610bf05781358601610bd68882610bfa565b845260208401935060208301925050600181019050610bc0565b5050505092915050565b600082601f830112610c0b57600080fd5b8135610c1e610c19826110a2565b61104d565b91508082526020830160208301858383011115610c3a57600080fd5b610c45838284611186565b50505092915050565b600082601f830112610c5f57600080fd5b8135610c72610c6d826110ce565b61104d565b91508082526020830160208301858383011115610c8e57600080fd5b610c99838284611186565b50505092915050565b600060208284031215610cb457600080fd5b600082013567ffffffffffffffff811115610cce57600080fd5b610cda84828501610b86565b91505092915050565b600060208284031215610cf557600080fd5b600082013567ffffffffffffffff811115610d0f57600080fd5b610d1b84828501610c4e565b91505092915050565b6000610d308383610e36565b905092915050565b6000610d448383610f57565b905092915050565b6000610d5782611114565b610d61818561114f565b935083602082028501610d73856110fa565b8060005b85811015610daf5784840389528151610d908582610d24565b9450610d9b83611135565b925060208a01995050600181019050610d77565b50829750879550505050505092915050565b6000610dcc8261111f565b610dd68185611160565b935083602082028501610de88561110a565b8060005b85811015610e245784840389528151610e058582610d38565b9450610e1083611142565b925060208a01995050600181019050610dec565b50829750879550505050505092915050565b6000610e418261112a565b610e4b818561116b565b9350610e5b818560208601611195565b610e64816111c8565b840191505092915050565b6000610120830160008301518482036000860152610e8d8282610e36565b91505060208301518482036020860152610ea78282610e36565b91505060408301518482036040860152610ec18282610e36565b91505060608301518482036060860152610edb8282610e36565b9150506080830151610ef06080860182610fd8565b5060a083015184820360a0860152610f088282610e36565b91505060c083015184820360c0860152610f228282610e36565b91505060e0830151610f3760e0860182610fd8565b50610100830151610f4c610100860182610fd8565b508091505092915050565b60006040830160008301518482036000860152610f748282610e36565b91505060208301518482036020860152610f8e8282610e36565b9150508091505092915050565b60006040830160008301518482036000860152610fb88282610dc1565b9150506020830151610fcd6020860182610fd8565b508091505092915050565b610fe18161117c565b82525050565b600060208201905081810360008301526110018184610d4c565b905092915050565b600060208201905081810360008301526110238184610e6f565b905092915050565b600060208201905081810360008301526110458184610f9b565b905092915050565b6000604051905081810181811067ffffffffffffffff8211171561107057600080fd5b8060405250919050565b600067ffffffffffffffff82111561109157600080fd5b602082029050602081019050919050565b600067ffffffffffffffff8211156110b957600080fd5b601f19601f8301169050602081019050919050565b600067ffffffffffffffff8211156110e557600080fd5b601f19601f8301169050602081019050919050565b6000819050602082019050919050565b6000819050919050565b600081519050919050565b600060649050919050565b600081519050919050565b6000602082019050919050565b6000602082019050919050565b600082825260208201905092915050565b600081905092915050565b600082825260208201905092915050565b6000819050919050565b82818337600083830152505050565b60005b838110156111b3578082015181840152602081019050611198565b838111156111c2576000848401525b50505050565b6000601f19601f830116905091905056fea264697066735822122056aef78edc81b8229da81deda3cf2a346674ddc5da05fcfe631ee33ac1183d0564736f6c63430006000033a26469706673582212201f0a0e7b5d6f85109d76b125962634c1a60f637f1cdbcf73281f6fd9fd4aa20c64736f6c63430006000033",
  "source": "pragma solidity ^0.6.0;\npragma experimental ABIEncoderV2;\n\nimport \"./EsToken.sol\";\nimport \"./DataStruct.sol\";\n\ncontract CadastralContract{\n    mapping(string => EsToken) nowEstateList;\n    uint esCount;\n    uint totalCount;\n    uint flag;\n    string [] temp;\n\n    event eventSplit(\n        string pId,\n        string changeDate\n    );\n\n    event eventCreate(\n        string Id,\n        string createDate\n    );\n\n    event eventMerge(\n        string childId,\n        string changeDate\n    );\n\n    constructor() public{\n        esCount = 0;\n        totalCount = 0;\n        flag = 0;\n    }\n\n    function create(string memory id,Data memory data,Polygon memory poly,string [] memory pa) public  payable{\n        EsToken estate = new EsToken(id,data,poly,pa);\n        nowEstateList[id] = estate;\n        esCount += 1;\n        totalCount += 1;\n        if(flag == 0){\n            emit eventCreate(id,data.begDate);\n        }\n    }\n\n    function split(string memory sId,string [] memory newIdList,Data [] memory newDataList,Polygon [] memory polygonList, uint numOfnewEstate) public payable{\n        flag = 1;\n\n        EsToken estate = nowEstateList[sId];\n        estate.setEndDate(newDataList[0].begDate);\n        estate.setChildren(newIdList);\n        string [1] memory pa;\n        pa[0] = sId;\n        temp = pa;\n\n        for(uint i = 0;i < numOfnewEstate;i++){\n            create(newIdList[i],newDataList[i],polygonList[i],temp);\n        }\n        esCount -= 1;\n\n        emit eventSplit(sId,newDataList[0].begDate);\n        flag = 0;\n    }\n\n    function merge(string [] memory mIdList,string memory newId,Data memory data,Polygon memory polygon,uint numOfMergeEstate) public payable{\n        flag = 1;\n        EsToken estate;\n        string [1] memory chi;\n        chi[0] = newId;\n        temp = chi;\n        for(uint i = 0;i < numOfMergeEstate;i++){\n            estate = nowEstateList[mIdList[i]];\n            estate.setEndDate(data.begDate);\n            estate.setChildren(temp);\n        }\n        create(newId,data,polygon,mIdList);\n        emit eventMerge(newId,data.begDate);\n        flag = 0;\n    }\n\n    /*function getEstateAddress(string memory id) public view returns(address){\n        string memory tmp = \"\";\n        if(keccak256(abi.encodePacked(changeIdList[id])) != keccak256(abi.encodePacked(tmp))){\n            return address(nowEstateList[changeIdList[id]]);\n        }\n        else{\n            return address(nowEstateList[id]);\n        }\n    }*/\n    function getEstateData(string memory Id) public view returns(Data memory,Polygon memory,string [] memory,string [] memory){\n\n        EsToken estate = nowEstateList[Id];\n        Data memory data = estate.getData();\n        Polygon memory poly = estate.getPolygon();\n        string [] memory pa = estate.getParents();\n        string [] memory chi = estate.getChildren();\n        return (data,poly,pa,chi);\n    }\n}\n",
  "sourcePath": "/mnt/d/BLCH2/contracts/CadastralContract.sol",
  "compiler": {
    "name": "solc",
    "version": "0.6.0+commit.26b70077.Emscripten.clang"
  },
  "schemaVersion": "3.1.0",
  "updatedAt": "2020-05-22T07:54:21.747Z",
  "networkType": "ethereum",
  "devdoc": {
    "methods": {}
  },
  "userdoc": {
    "methods": {}
  }
}